{
  "_format": "hh-sol-artifact-1",
  "contractName": "Crowdfunding",
  "sourceName": "contracts/Crowdfunding.sol",
  "abi": [
    {
      "anonymous": false,
      "inputs": [
        {
          "indexed": true,
          "internalType": "uint256",
          "name": "campaignId",
          "type": "uint256"
        },
        {
          "indexed": false,
          "internalType": "address",
          "name": "creator",
          "type": "address"
        },
        {
          "indexed": false,
          "internalType": "string",
          "name": "title",
          "type": "string"
        },
        {
          "indexed": false,
          "internalType": "uint256",
          "name": "goal",
          "type": "uint256"
        },
        {
          "indexed": false,
          "internalType": "uint256",
          "name": "deadline",
          "type": "uint256"
        }
      ],
      "name": "CampaignCreated",
      "type": "event"
    },
    {
      "anonymous": false,
      "inputs": [
        {
          "indexed": true,
          "internalType": "uint256",
          "name": "campaignId",
          "type": "uint256"
        },
        {
          "indexed": false,
          "internalType": "address",
          "name": "contributor",
          "type": "address"
        },
        {
          "indexed": false,
          "internalType": "uint256",
          "name": "amount",
          "type": "uint256"
        }
      ],
      "name": "ContributionMade",
      "type": "event"
    },
    {
      "anonymous": false,
      "inputs": [
        {
          "indexed": true,
          "internalType": "uint256",
          "name": "campaignId",
          "type": "uint256"
        },
        {
          "indexed": false,
          "internalType": "uint256",
          "name": "amount",
          "type": "uint256"
        }
      ],
      "name": "FundsReleased",
      "type": "event"
    },
    {
      "anonymous": false,
      "inputs": [
        {
          "indexed": true,
          "internalType": "uint256",
          "name": "campaignId",
          "type": "uint256"
        },
        {
          "indexed": false,
          "internalType": "address",
          "name": "contributor",
          "type": "address"
        },
        {
          "indexed": false,
          "internalType": "uint256",
          "name": "amount",
          "type": "uint256"
        }
      ],
      "name": "RefundIssued",
      "type": "event"
    },
    {
      "inputs": [
        {
          "internalType": "uint256",
          "name": "",
          "type": "uint256"
        }
      ],
      "name": "campaigns",
      "outputs": [
        {
          "internalType": "address",
          "name": "creator",
          "type": "address"
        },
        {
          "internalType": "string",
          "name": "title",
          "type": "string"
        },
        {
          "internalType": "uint256",
          "name": "goal",
          "type": "uint256"
        },
        {
          "internalType": "uint256",
          "name": "deadline",
          "type": "uint256"
        },
        {
          "internalType": "uint256",
          "name": "raised",
          "type": "uint256"
        },
        {
          "internalType": "bool",
          "name": "completed",
          "type": "bool"
        }
      ],
      "stateMutability": "view",
      "type": "function"
    },
    {
      "inputs": [
        {
          "internalType": "uint256",
          "name": "_campaignId",
          "type": "uint256"
        }
      ],
      "name": "contribute",
      "outputs": [],
      "stateMutability": "payable",
      "type": "function"
    },
    {
      "inputs": [
        {
          "internalType": "uint256",
          "name": "",
          "type": "uint256"
        },
        {
          "internalType": "address",
          "name": "",
          "type": "address"
        }
      ],
      "name": "contributions",
      "outputs": [
        {
          "internalType": "uint256",
          "name": "",
          "type": "uint256"
        }
      ],
      "stateMutability": "view",
      "type": "function"
    },
    {
      "inputs": [
        {
          "internalType": "string",
          "name": "_title",
          "type": "string"
        },
        {
          "internalType": "uint256",
          "name": "_goal",
          "type": "uint256"
        },
        {
          "internalType": "uint256",
          "name": "_deadline",
          "type": "uint256"
        }
      ],
      "name": "createCampaign",
      "outputs": [],
      "stateMutability": "nonpayable",
      "type": "function"
    },
    {
      "inputs": [],
      "name": "getCampaignCount",
      "outputs": [
        {
          "internalType": "uint256",
          "name": "",
          "type": "uint256"
        }
      ],
      "stateMutability": "view",
      "type": "function"
    },
    {
      "inputs": [
        {
          "internalType": "uint256",
          "name": "_campaignId",
          "type": "uint256"
        }
      ],
      "name": "refund",
      "outputs": [],
      "stateMutability": "nonpayable",
      "type": "function"
    },
    {
      "inputs": [
        {
          "internalType": "uint256",
          "name": "_campaignId",
          "type": "uint256"
        }
      ],
      "name": "releaseFunds",
      "outputs": [],
      "stateMutability": "nonpayable",
      "type": "function"
    }
  ],
  "bytecode": "0x608060405234801561001057600080fd5b50611738806100206000396000f3fe6080604052600436106100705760003560e01c80633d891f591161004e5780633d891f59146101095780634d68282f146101465780636caa92181461016f578063c1cbbca71461019a57610070565b8063141961bc14610075578063278ecde1146100b75780633020580b146100e0575b600080fd5b34801561008157600080fd5b5061009c60048036038101906100979190610e6a565b6101b6565b6040516100ae96959493929190611267565b60405180910390f35b3480156100c357600080fd5b506100de60048036038101906100d99190610e6a565b6102b7565b005b3480156100ec57600080fd5b5061010760048036038101906101029190610e03565b6105f0565b005b34801561011557600080fd5b50610130600480360381019061012b9190610e93565b61079c565b60405161013d9190611458565b60405180910390f35b34801561015257600080fd5b5061016d60048036038101906101689190610e6a565b6107c1565b005b34801561017b57600080fd5b50610184610a95565b6040516101919190611458565b60405180910390f35b6101b460048036038101906101af9190610e6a565b610aa1565b005b600081815481106101c657600080fd5b90600052602060002090600602016000915090508060000160009054906101000a900473ffffffffffffffffffffffffffffffffffffffff169080600101805461020f90611604565b80601f016020809104026020016040519081016040528092919081815260200182805461023b90611604565b80156102885780601f1061025d57610100808354040283529160200191610288565b820191906000526020600020905b81548152906001019060200180831161026b57829003601f168201915b5050505050908060020154908060030154908060040154908060050160009054906101000a900460ff16905086565b60008054905081106102fe576040517f08c379a00000000000000000000000000000000000000000000000000000000081526004016102f590611318565b60405180910390fd5b6000808281548110610339577f4e487b7100000000000000000000000000000000000000000000000000000000600052603260045260246000fd5b906000526020600020906006020190508060030154421015610390576040517f08c379a000000000000000000000000000000000000000000000000000000000815260040161038790611398565b60405180910390fd5b80600201548160040154106103da576040517f08c379a00000000000000000000000000000000000000000000000000000000081526004016103d190611378565b60405180910390fd5b8060050160009054906101000a900460ff161561042c576040517f08c379a000000000000000000000000000000000000000000000000000000000815260040161042390611358565b60405180910390fd5b60006001600084815260200190815260200160002060003373ffffffffffffffffffffffffffffffffffffffff1673ffffffffffffffffffffffffffffffffffffffff16815260200190815260200160002054116104bf576040517f08c379a00000000000000000000000000000000000000000000000000000000081526004016104b690611338565b60405180910390fd5b60006001600084815260200190815260200160002060003373ffffffffffffffffffffffffffffffffffffffff1673ffffffffffffffffffffffffffffffffffffffff16815260200190815260200160002054905060006001600085815260200190815260200160002060003373ffffffffffffffffffffffffffffffffffffffff1673ffffffffffffffffffffffffffffffffffffffff168152602001908152602001600020819055503373ffffffffffffffffffffffffffffffffffffffff166108fc829081150290604051600060405180830381858888f193505050501580156105b0573d6000803e3d6000fd5b50827f7a482fdeb6bc9a1376f597068a214a7a39472bb2eff1b8cad21ba04f49ddca1b33836040516105e39291906112cf565b60405180910390a2505050565b428111610632576040517f08c379a0000000000000000000000000000000000000000000000000000000008152600401610629906113f8565b60405180910390fd5b60006040518060c001604052803373ffffffffffffffffffffffffffffffffffffffff1681526020018581526020018481526020018381526020016000815260200160001515815250908060018154018082558091505060019003906000526020600020906006020160009091909190915060008201518160000160006101000a81548173ffffffffffffffffffffffffffffffffffffffff021916908373ffffffffffffffffffffffffffffffffffffffff1602179055506020820151816001019080519060200190610707929190610cce565b5060408201518160020155606082015181600301556080820151816004015560a08201518160050160006101000a81548160ff0219169083151502179055505050600160008054905061075a9190611546565b7fdc26653af5b99b2da33e2ad69ee6600d9aeccc82b034501db4338309615ca2383385858560405161078f949392919061121b565b60405180910390a2505050565b6001602052816000526040600020602052806000526040600020600091509150505481565b6000805490508110610808576040517f08c379a00000000000000000000000000000000000000000000000000000000081526004016107ff90611318565b60405180910390fd5b6000808281548110610843577f4e487b7100000000000000000000000000000000000000000000000000000000600052603260045260246000fd5b906000526020600020906006020190508060000160009054906101000a900473ffffffffffffffffffffffffffffffffffffffff1673ffffffffffffffffffffffffffffffffffffffff163373ffffffffffffffffffffffffffffffffffffffff16146108e5576040517f08c379a00000000000000000000000000000000000000000000000000000000081526004016108dc906113b8565b60405180910390fd5b806003015442101561092c576040517f08c379a000000000000000000000000000000000000000000000000000000000815260040161092390611398565b60405180910390fd5b806002015481600401541015610977576040517f08c379a000000000000000000000000000000000000000000000000000000000815260040161096e90611418565b60405180910390fd5b8060050160009054906101000a900460ff16156109c9576040517f08c379a00000000000000000000000000000000000000000000000000000000081526004016109c090611438565b60405180910390fd5b60018160050160006101000a81548160ff0219169083151502179055508060000160009054906101000a900473ffffffffffffffffffffffffffffffffffffffff1673ffffffffffffffffffffffffffffffffffffffff166108fc82600401549081150290604051600060405180830381858888f19350505050158015610a54573d6000803e3d6000fd5b50817f80230996023d69b50793fa73f1919127c9d8e741d3989743c479169f22e7a2888260040154604051610a899190611458565b60405180910390a25050565b60008080549050905090565b6000805490508110610ae8576040517f08c379a0000000000000000000000000000000000000000000000000000000008152600401610adf90611318565b60405180910390fd5b60003411610b2b576040517f08c379a0000000000000000000000000000000000000000000000000000000008152600401610b22906113d8565b60405180910390fd5b6000808281548110610b66577f4e487b7100000000000000000000000000000000000000000000000000000000600052603260045260246000fd5b9060005260206000209060060201905080600301544210610bbc576040517f08c379a0000000000000000000000000000000000000000000000000000000008152600401610bb3906112f8565b60405180910390fd5b8060050160009054906101000a900460ff1615610c0e576040517f08c379a0000000000000000000000000000000000000000000000000000000008152600401610c0590611358565b60405180910390fd5b34816004016000828254610c2291906114f0565b92505081905550346001600084815260200190815260200160002060003373ffffffffffffffffffffffffffffffffffffffff1673ffffffffffffffffffffffffffffffffffffffff1681526020019081526020016000206000828254610c8991906114f0565b92505081905550817f0a4a91237423e0a1766a761c7cb029311d8b95d6b1b81db1b949a70c98b4e08e3334604051610cc29291906112cf565b60405180910390a25050565b828054610cda90611604565b90600052602060002090601f016020900481019282610cfc5760008555610d43565b82601f10610d1557805160ff1916838001178555610d43565b82800160010185558215610d43579182015b82811115610d42578251825591602001919060010190610d27565b5b509050610d509190610d54565b5090565b5b80821115610d6d576000816000905550600101610d55565b5090565b6000610d84610d7f846114a4565b611473565b905082815260208101848484011115610d9c57600080fd5b610da78482856115c2565b509392505050565b600081359050610dbe816116d4565b92915050565b600082601f830112610dd557600080fd5b8135610de5848260208601610d71565b91505092915050565b600081359050610dfd816116eb565b92915050565b600080600060608486031215610e1857600080fd5b600084013567ffffffffffffffff811115610e3257600080fd5b610e3e86828701610dc4565b9350506020610e4f86828701610dee565b9250506040610e6086828701610dee565b9150509250925092565b600060208284031215610e7c57600080fd5b6000610e8a84828501610dee565b91505092915050565b60008060408385031215610ea657600080fd5b6000610eb485828601610dee565b9250506020610ec585828601610daf565b9150509250929050565b610ed88161157a565b82525050565b610ee78161158c565b82525050565b6000610ef8826114d4565b610f0281856114df565b9350610f128185602086016115d1565b610f1b816116c3565b840191505092915050565b6000610f33600e836114df565b91507f43616d706169676e20656e6465640000000000000000000000000000000000006000830152602082019050919050565b6000610f736017836114df565b91507f43616d706169676e20646f6573206e6f742065786973740000000000000000006000830152602082019050919050565b6000610fb3600f836114df565b91507f4e6f20636f6e747269627574696f6e00000000000000000000000000000000006000830152602082019050919050565b6000610ff36012836114df565b91507f43616d706169676e20636f6d706c6574656400000000000000000000000000006000830152602082019050919050565b60006110336008836114df565b91507f476f616c206d65740000000000000000000000000000000000000000000000006000830152602082019050919050565b60006110736015836114df565b91507f43616d706169676e207374696c6c2061637469766500000000000000000000006000830152602082019050919050565b60006110b3601e836114df565b91507f4f6e6c792063726561746f722063616e2072656c656173652066756e647300006000830152602082019050919050565b60006110f36023836114df565b91507f436f6e747269627574696f6e206d75737420626520677265617465722074686160008301527f6e203000000000000000000000000000000000000000000000000000000000006020830152604082019050919050565b6000611159601e836114df565b91507f446561646c696e65206d75737420626520696e207468652066757475726500006000830152602082019050919050565b6000611199600c836114df565b91507f476f616c206e6f74206d657400000000000000000000000000000000000000006000830152602082019050919050565b60006111d96016836114df565b91507f46756e647320616c72656164792072656c6561736564000000000000000000006000830152602082019050919050565b611215816115b8565b82525050565b60006080820190506112306000830187610ecf565b81810360208301526112428186610eed565b9050611251604083018561120c565b61125e606083018461120c565b95945050505050565b600060c08201905061127c6000830189610ecf565b818103602083015261128e8188610eed565b905061129d604083018761120c565b6112aa606083018661120c565b6112b7608083018561120c565b6112c460a0830184610ede565b979650505050505050565b60006040820190506112e46000830185610ecf565b6112f1602083018461120c565b9392505050565b6000602082019050818103600083015261131181610f26565b9050919050565b6000602082019050818103600083015261133181610f66565b9050919050565b6000602082019050818103600083015261135181610fa6565b9050919050565b6000602082019050818103600083015261137181610fe6565b9050919050565b6000602082019050818103600083015261139181611026565b9050919050565b600060208201905081810360008301526113b181611066565b9050919050565b600060208201905081810360008301526113d1816110a6565b9050919050565b600060208201905081810360008301526113f1816110e6565b9050919050565b600060208201905081810360008301526114118161114c565b9050919050565b600060208201905081810360008301526114318161118c565b9050919050565b60006020820190508181036000830152611451816111cc565b9050919050565b600060208201905061146d600083018461120c565b92915050565b6000604051905081810181811067ffffffffffffffff8211171561149a57611499611694565b5b8060405250919050565b600067ffffffffffffffff8211156114bf576114be611694565b5b601f19601f8301169050602081019050919050565b600081519050919050565b600082825260208201905092915050565b60006114fb826115b8565b9150611506836115b8565b9250827fffffffffffffffffffffffffffffffffffffffffffffffffffffffffffffffff0382111561153b5761153a611636565b5b828201905092915050565b6000611551826115b8565b915061155c836115b8565b92508282101561156f5761156e611636565b5b828203905092915050565b600061158582611598565b9050919050565b60008115159050919050565b600073ffffffffffffffffffffffffffffffffffffffff82169050919050565b6000819050919050565b82818337600083830152505050565b60005b838110156115ef5780820151818401526020810190506115d4565b838111156115fe576000848401525b50505050565b6000600282049050600182168061161c57607f821691505b602082108114156116305761162f611665565b5b50919050565b7f4e487b7100000000000000000000000000000000000000000000000000000000600052601160045260246000fd5b7f4e487b7100000000000000000000000000000000000000000000000000000000600052602260045260246000fd5b7f4e487b7100000000000000000000000000000000000000000000000000000000600052604160045260246000fd5b6000601f19601f8301169050919050565b6116dd8161157a565b81146116e857600080fd5b50565b6116f4816115b8565b81146116ff57600080fd5b5056fea264697066735822122090c85cbfc7453b89e5c0edb12ededfcef99a8644bc4bd292b2cc15ad33ce78dc64736f6c63430008000033",
  "linkReferences": {},
  "deployedLinkReferences": {}
}